:020000040800F2
:10000000C84E0020E9020008EB2D000881290008F5
:10001000E92D0008430500081D3600080000000017
:10002000000000000000000000000000290200089D
:10003000090900080000000085020008F52D0008ED
:100040000303000803030008030300080303000878
:100050000303000803030008030300080303000868
:100060000303000803030008030300080303000858
:10007000ED05000803030008F90500080303000864
:100080000303000803030008030300088D050008AC
:1000900081050008030300080303000803030008A8
:1000A000B12E0008CD2E000803030008030300084A
:1000B0000303000803030008030300080303000808
:1000C00003030008030300080303000803030008F8
:1000D00003030008FD33000803030008413400084F
:1000E000030300080303000803030008E92E0008C7
:1000F000F52E0008030300080303000803030008AB
:1001000003030008030300080303000803030008B7
:1001100003030008030300080303000803030008A7
:100120000303000805060008110600080303000881
:10013000030300080303000803030008E1050008A7
:10014000D5050008030300080303000803030008A3
:10015000030300081D06000829060008D53500081D
:100160000303000803030008030300080303000857
:100170000303000803030008030300080000000055
:10018000030300080303000800F002F800F03CF845
:100190000AA090E8000C82448344AAF10107DA45E2
:1001A00001D100F031F8AFF2090EBAE80F0013F0F8
:1001B000010F18BFFB1A43F001031847E85700006E
:1001C00008580000103A24BF78C878C1FAD85207FE
:1001D00024BF30C830C144BF04680C6070470000C1
:1001E0000023002400250026103A28BF78C1FBD840
:1001F000520728BF30C148BF0B6070471FB505F0DC
:100200003BFB1FBD10B510BD00F066F91146FFF7AE
:10021000F5FF03F00FFF00F084F903B4FFF7F2FFDE
:1002200003BC00F087F900002C4B19680868B0E89F
:10023000F04F80F30988BFF36F8F4FF0000080F319
:10024000118870470000000008480068006880F3CB
:1002500008884FF0000080F3148862B661B6BFF3DF
:100260004F8FBFF36F8F00DF00BF00BF08ED00E0CE
:10027000DFF80C00016841F470010160704700BFB5
:1002800088ED00E0EFF30980BFF36F8F134B1A681E
:100290001EF0100F08BF20ED108A20E9F04F10600B
:1002A00009B44FF0500080F31188BFF34F8FBFF3B4
:1002B0006F8F04F0F1FB4FF0000080F3118809BC50
:1002C00019680868B0E8F04F1EF0100F08BFB0ECD6
:1002D000108A80F30988BFF36F8F70471C000020DD
:1002E000EFF3058070470000094880470948004740
:1002F000FEE7FEE7FEE7FEE7FEE7FEE7FEE7FEE7D6
:10030000FEE7FEE704480549054A064B7047000032
:10031000A12E000889010008C8480020C84E00200E
:10032000C84A0020C84A002053EA020C00F0698045
:100330002DE9F04B4FF00006002B1FBFB3FA83F5F9
:1003400003FA05F424FA05F65E4012BF1643B2FA2A
:1003500082F502FA05F4C5F120051EBF22FA05FC5C
:1003600044EA0C04203556EA044C4FEA144418BF02
:10037000641C4FF000084FF00009904271EB030C31
:1003800039D3002919BFB1FA81F701FA07F6B0FA9B
:1003900080F700FA07F6C7F120071EBF20FA07FC16
:1003A00046EA0C062037B6FBF4FCA7EB0507103F26
:1003B00007F01F0BCBF120060CFA0BFB2CFA06F60C
:1003C00044BFB3460026202FA4BF5E464FF0000B6B
:1003D0005BEA060C08BF4FF0010B19EB0B09ABFBF6
:1003E000027C48EB0608C01B06FB02CC0BFB03CCCF
:1003F00071EB0C01C1E70B46024641464846BDE899
:10040000F08B13B54FF000004FF00001AFF3008008
:10041000BDE81C40704710B5203AC0F00B80B1E831
:100420001850203AA0E81850B1E81850A0E8185029
:10043000BFF4F5AF5FEA027C24BFB1E81850A0E832
:10044000185044BF18C918C0BDE810405FEA827C4C
:1004500024BF51F8043B40F8043B08BF7047D20763
:1004600028BF31F8023B48BF11F8012B28BF20F804
:10047000023B48BF00F8012B70474FF0000200B567
:10048000134694469646203922BFA0E80C50A0E8B7
:100490000C50B1F12001BFF4F7AF090728BFA0E865
:1004A0000C5048BF0CC05DF804EB890028BF40F831
:1004B000042B08BF704748BF20F8022B11F0804F73
:1004C00018BF00F8012B7047704770477047000055
:1004D00000487047684800207546FFF7F9FFAE46B0
:1004E00005006946534620F00700854618B020B540
:1004F000FFF708FFBDE820404FF000064FF000076F
:100500004FF000084FF0000B21F00701AC46ACE8BB
:10051000C009ACE8C009ACE8C009ACE8C0098D4628
:10052000704710B50446AFF300802046BDE8104088
:10053000FFF773BE01491820ABBEFEE7260002009C
:100540007047FEE700B58BB000200121CDE9060120
:100550000590009001900290039004900E20CDE948
:1005600008106946054800F049FA0221034800F0E6
:10057000CEF9024800F0CEFD0BB000BD5C030020B8
:10058000014800F036BB00005C030020014800F089
:1005900030BB00005C03002000B58BB001220E21AF
:1005A00000200792CDE9051003900490CDE90821C1
:1005B0000090019002906946054800F01FFA022160
:1005C000034800F0A4F9024800F0A4FD0BB000BD00
:1005D00084030020014800F00CBB000084030020CD
:1005E000014800F006BB000084030020014800F031
:1005F0001FBE0000A0060020014800F019BE000048
:1006000000070020014800F013BE00006007002032
:10061000014800F00DBE0000E0050020014800F098
:1006200007BE0000C0070020014800F001BE000026
:10063000400600202DE9F04F85680024099E802D9A
:1006400018D0894DC563894D456490F83450012D0B
:1006500015D0012580F8345090F83550012D10D078
:10066000002180F834100224002180F83410204644
:10067000BDE8F08F4FF4807141650120F8E702205A
:10068000F6E7022580F835500025456505682F6896
:1006900047F480272F6005682B6103685E608368DC
:1006A000402B03682AD099600168CA60714D704E72
:1006B000704FDFF8BC81DFF8B891DFF8B8A1DFF840
:1006C000B4B1EA14DFF8A8E10168183630379302B4
:1006D000A9F148090AF1600A0BF1180BAEF1300ECE
:1006E0004FF0006C41452DD9A94205D0494503D0B2
:1006F000514501D0B14205D1202220E09A60026824
:10070000D160D3E759451AD0714518D0594D783585
:10071000A94214D0564D3035A94210D0B9420BD061
:10072000534A183A914207D0524A9032914203D02C
:100730004F4A4832914201D11A4600E062464C4984
:100740004C392EE0DFF82C8108F1A80841452AD960
:10075000A94205D0494503D0514501D0B14201D14C
:1007600020221CE059451AD0714518D0414D7835EA
:10077000A94214D03E4D3035A94210D0B9420BD019
:100780003B4A183A914207D03A4A9032914203D0FC
:10079000374A4832914201D11A4600E06246344954
:1007A00050390A605AE0DFF8CC8008F1480841452A
:1007B0002AD9A94205D0494503D0514501D0B142BB
:1007C00001D120221CE059451AD0714518D0294D7D
:1007D0007835A94214D0264D3035A94210D0B942FF
:1007E0000BD0234A183A914207D0224A90329142C4
:1007F00003D01F4A4832914201D11A4600E06246B6
:100800001C491039CA6029E0A94205D0494503D0E6
:10081000514501D0B14201D120221CE059451AD0E6
:10082000714518D0134D7835A94214D0104D30358C
:10083000A94210D0B9420BD00D4A183A914207D0C4
:100840000C4A9032914203D0094A4832914201D178
:100850001A4600E06246074910398A6001680A6852
:1008600042F001020A60FFE6FD3D0008353E000847
:10087000586402401060024001681823CAB2103A5E
:10088000B2FBF3F2054B6FF30901032A9B5CC365CE
:1008900000D9091D8165084670470000C45800084A
:1008A00010B5014600208B698A6A4FF0C07453B1BD
:1008B000B3F5005F15D072B1012A0CD0022A0AD01C
:1008C000032A09D104E01AB1012A06D0022A03D171
:1008D000C96AC90100D5012010BDC96AA142FAD078
:1008E00010BD002AF7D0012AF2D0022AF3D0032A41
:1008F000F3D010BD01680A68D20604D5C968C906DC
:1009000001D503F04FBF7047704772B6FEE790F80D
:100910002020012A07D0022A05D0416A41F4802113
:10092000416201207047006842690A434261002029
:100930007047F0B590F820500468A468012D05D0E8
:10094000022D03D0416A41F4802153E014F0406F3E
:1009500001D1E5004BD5C4F30164022C03D9416AEF
:1009600041F4000146E00125A5401D608D684FF46B
:10097000C0739DB1CE6835434E6845EAC60506682A
:1009800003EB0417F5514FF4C275076805EB041526
:100990000E697E51097D012905D009E00E88CD68D8
:1009A00045EA4655EBE701684E5946F480764E51CC
:1009B0001179D2F805504FF4C67641EA0525016851
:1009C00006EB04168D511178D2F801204FF4C4754E
:1009D00041EA0221026805EB04155151006803EB5E
:1009E0000411425842F0010242500020F0BD416A19
:1009F00041F4001141620120F0BD000010B590F8F3
:100A00002020012A07D0022A05D0416A41F4802122
:100A10004162012010BD3B48D0F8002242F00102A3
:100A2000C0F80022D0F8002222F47C52C0F8002244
:100A3000D0F800224B6A42EA0322C0F800220A7D65
:100A400002F01F0301229A40D0F81C329343C0F8F1
:100A50001C32CB69B3B9D0F80C329343C0F80C32D6
:100A60008C894B6864F31F434C6900EBC404C4F8E1
:100A700040320C890B6864F31F434C6900EBC404DB
:100A8000C4F84432CB69012B16D1D0F80C32134391
:100A9000C0F80C320C884B6864F31F434C6900EBC0
:100AA000C404C4F840320C89CB6864F31F434C691A
:100AB00000EBC404C4F844328B69002BD0F8043234
:100AC0000ED01343C0F804320B69002BD0F8143257
:100AD00008D01343C0F81432096A012904D008E091
:100AE0009343EFE79343F5E7D0F81C121143C0F8A6
:100AF0001C12D0F8001221F00101C0F800120020F1
:100B000010BD000000640040704730B590F82040F0
:100B1000012C05D0022C03D0416A41F480215DE014
:100B20000468002955D02469A40754D04FF4D87420
:100B3000056804EB01142D5915F00405956005684E
:100B40002D594ED0ED08556005682C5904F002046B
:100B5000D4604FF4DA74056804EB01142D5905F0E4
:100B60000F05156105682D59C5F3072595610568C1
:100B70002C59240C54614FF4DC72046802EB01120E
:100B8000A4581C700468A458240A5C700468A45813
:100B9000240C9C700468A258120EDA704FF4DE72B6
:100BA000046802EB0112A4581C710468A458240ABA
:100BB0005C710468A458240C9C710468A258120E3D
:100BC000DA71006881B1016941F020010161002002
:100BD00030BDE468A8E7416A41F400114162012098
:100BE00030BD6D0D1560AFE7C16841F02001C160F7
:100BF000EDE72DE9F05F0546006800244669D0F86E
:100C000004908768D0F80CB0D0F810A0D0F8188005
:100C1000F10748D0F90714D001218160B80703D546
:100C2000284600F0A4FA0CE0780702D54FF40064DF
:100C300007E0380702D54FF4805402E0284600F060
:100C400095FAF80516D529684FF480708860B805C4
:100C500003D5284600F08DFA0CE0780502D544F45F
:100C6000005407E0380502D544F4804402E02846E9
:100C700000F07EFAF80316D529684FF480308860BA
:100C8000B80303D5284600F076FA0CE0780302D5C5
:100C900044F4004407E0380302D544F4803402E011
:100CA000284600F067FA300707D55FEACB6004D525
:100CB0002968102044F40074C86070074FF00807DA
:100CC00007D55FEA0B7004D52868C760284600F096
:100CD000A9F9B00706D52868C068800702D0284661
:100CE00000F0A2F9700607D55FEACA6004D529684A
:100CF000102044F480640861B00607D55FEA0A70EA
:100D000004D528680761284600F000FAF00606D5E9
:100D100028680069800702D0284600F0F8F9B0037F
:100D200008D55FEAC96005D52968102048602846C3
:100D300000F0EEF9F00307D55FEA097004D52868E2
:100D40004760284600F018FA300446D55FEA49703B
:100D500040D5F00504D55FEAC87001D044F0010425
:100D6000B00504D55FEA887001D544F0020470052F
:100D700004D55FEA487001D544F00404300529D554
:100D800018F0700F26D008F07000402815D006DC4F
:100D9000102809D020280AD0302816D10AE050287F
:100DA0000ED0602811D10EE044F008040DE044F0AC
:100DB00010040AE044F0200407E044F0400404E09A
:100DC00044F0800401E044F480742868816921F0D3
:100DD00070018161296804204860002C05D0686A90
:100DE000204368622846FFF78FFEBDE8F09F70B58C
:100DF000040003D094F8200010B104E0012070BD7D
:100E0000204600F081F82068016841F0010101608E
:100E100000F040FC0546052604E000F03BFC401BCA
:100E20000A2811D820684068C007F6D020680168F9
:100E300021F00201016000F02DFC05460BE000F0FE
:100E400029FC401B0A2806D9606A40F40030606221
:100E500084F82060D2E7206840688007EFD4207EC5
:100E60000128206801683DD021F080010160607E8A
:100E700001282068016838D021F040010160A07E7F
:100E800001282068016833D021F020010160E07E54
:100E90000128206801682ED041F010010160207FF8
:100EA00001282068016829D021F008010160607FD5
:100EB00001282068016824D021F004010160D4E9F0
:100EC00002010843D4E90412114308436168491E32
:100ED00008432168C86100206062012084F8200076
:100EE000002070BD41F08001C0E741F04001C5E73E
:100EF00041F02001CAE721F01001CFE741F00801DD
:100F0000D4E741F00401D9E7F0B587B004461421D5
:100F10006846FFF7B2FA3E4B3E48DFF8F0E019684A
:100F2000D4F800C03B4A03250226092710300024CC
:100F3000491CF4452AD11960012907D1016841F003
:100F400000710160006800F000700590106840F0CA
:100F5000080010601068CDE9005600F00800CDE9E7
:100F6000047069462C48CDE9024500F09BFA002246
:100F70000521132000F000FC132000F0EFFB0022FD
:100F80000521142000F0F8FB14203AE0DFF88CE093
:100F9000F44538D1D0F800C04CF0806CC0F800C0E7
:100FA000D0F800C001290CF0806CCDF814C0196095
:100FB00007D1016841F000710160006800F0007025
:100FC0000590106840F002001060106802AB00F05D
:100FD000020005906020CDE9000683E8B000694674
:100FE0000F4800F05FFA002205213F2000F0C4FB0B
:100FF0003F2000F0B3FB00220521402000F0BCFBA5
:10100000402000F0ABFB07B0F0BD000000640040E2
:101010000800002030380240000C02400068004008
:10102000000402407047000030B504460068324DAD
:1010300089B0A84205D107AB6A4600212046FFF7D8
:1010400064FD2068A84255D107AB6A4600212046BE
:10105000FFF75BFD0098A0F2052003281AD210F0DC
:10106000FF01BDF81C0001EB410342BA234800EB2D
:1010700083008280BDF81E2052BAC280BDF82020B5
:1010800052BA02819DF82220827203D11C4908883D
:10109000401C08800098A0F5007111392AD1BDF8D4
:1010A0001C0000EE100A1848F8EE400A9FED150AE1
:1010B00080EE801A80ED001ABDF81E1000EE901A26
:1010C000F8EE600A80EE801A80ED011ABDF820105B
:1010D00000EE901AF8EE600A80EE801A80ED021A97
:1010E000BDF8221000EE901AF8EE600A80EE801A29
:1010F00080ED031A09B030BD0064004008480020AC
:10110000840000200000C84210450020704770474E
:101110007047000070B5044690F82000012804D004
:10112000606A40F40020606218E0022084F8200029
:101130002068016821F00101016000F0ABFA05466A
:101140000EE000BF00F0A6FA401B0A2808D9606A2A
:1011500040F400306062052084F82000012070BD5A
:1011600020684068C007EDD1606270BD704770476D
:10117000704770477047704770472DE9F04104464B
:10118000876D00F087FA064694F83500002502289E
:1011900006D08020606584F834500120BDE8F081DD
:1011A0002068016821F0160101602068416921F082
:1011B00080014161206C08B9A06C20B120680168F1
:1011C00021F0080101602068016821F0010101603F
:1011D0000CE000F05FFA801B052807D9202060652D
:1011E000032084F8350084F83450D7E7206800687D
:1011F000C007EED194F85C103F208840B860012011
:1012000084F8350084F834500020C7E790F8351092
:10121000022903D08021416501207047052180F813
:1012200035100068016821F001010160002070475D
:101230002DE9F84304464FF00009CDF800906348CB
:101240004FF41651A56D0068B0FBF1F72E6894F8C5
:101250005C10082000FA01F131420FD021680A68C1
:1012600052070BD50A6822F004020A6094F85C1059
:101270008840A860606D40F00100606594F85C10E3
:101280004FF0010808FA01F0304208D0216849699E
:10129000090604D5A860606D40F00200606594F80E
:1012A0005C1004208840304208D021680968890712
:1012B00004D5A860606D40F00400606594F85C108F
:1012C00010208840304218D021680968090714D5D9
:1012D000A86020680168490304D50068000308D5A8
:1012E000A16C07E00168C90503D4016821F0080179
:1012F0000160216C09B12046884794F85C102020D9
:101300008840304231D021680968C9062DD5A860CF
:1013100094F8350005282068016806D0490347D5B0
:10132000006800031DD4616C1CE021F0160101600F
:101330002068416921F080014161206C08B9A06CEE
:1013400020B12068016821F00801016094F85C1068
:101350003F208840A86084F8358084F83490216D5F
:101360001FE0E16B09B120468847606D00282BD053
:10137000606DC00714D0052084F83500206801682E
:1013800021F0010101600098401C0090B84203D890
:1013900020680068C007F6D184F8358084F834905E
:1013A000E16C002910D001B02046BDE8F0430847A9
:1013B0000168C905D5D4016821F01001016084F8E5
:1013C000358084F83490CCE7BDE8F883180000201D
:1013D0002DE9F041044600F05DF906465CB10220BB
:1013E00084F83500002584F834502068016821F025
:1013F000010101600DE00120BDE8F08100F04AF933
:10140000801B052805D920206065032084F835005D
:10141000F2E720680068C007F0D122681168204810
:101420000140D4E901031843D4E903363343184398
:1014300063691843A3691843E3691843236A18438F
:101440000843616A042903D1D4E90B131943084303
:10145000106020684069666A20F0070130460E433C
:10146000012704280CD1A06A0643E06A40B1204657
:10147000FFF716FA20B14020606584F83570BAE7AE
:10148000206846612046FFF7F7F994F85C203F2179
:1014900091408160656584F835700020ACE70000FC
:1014A0003F8010F02DE9F84FDFF8BCA100220125A4
:1014B00003264FF00F090AF1040BAAF1040E00BF36
:1014C0000B6805FA02F42340A34270D10F7907F0AC
:1014D0000307012F01D0022F16D187684FEA420877
:1014E00006FA08FC27EA0C07D1F80CC00CFA08FC35
:1014F0004CEA070CC0F808C04768A7430C79C4F34E
:10150000001494403C4344600C79E443A4070AD09F
:10151000C4684FEA420C06FA0CF7BC438F6807FA1E
:101520000CF72743C7600C7904F00304022C12D196
:10153000D40800EB840CDCF820405707FF0E09FAB2
:1015400007F824EA0804D1F8108008FA07F848EAF6
:101550000408CCF8208004684FEA420C06FA0CF725
:10156000BC430F7907F0030707FA0CF7274307601E
:101570004C6814F4403F70D03C4C276847F48047D7
:101580002760246822F0030704F480440094384C58
:1015900007EB040CDCF8084897074FEA177809FABC
:1015A00008F7BC43334FB84202D1002724E054E08F
:1015B000314FB84201D101271EE0304FB84201D16E
:1015C000022719E02E4FB84201D1032714E02D4F16
:1015D000B84201D104270FE02B4FB84201D10527B3
:1015E0000AE02A4FB84201D1062705E0284FB84249
:1015F00001D1072700E0082707FA08F72743CCF8AE
:101600000878DAF800405746D1F804C09C435FEAF6
:10161000CC2C00D51C433C60DBF800405F46D1F881
:1016200004C09C435FEA8C2C00D51C433C60DEF870
:1016300000407746D1F804C09C435FEA8C3C00D55B
:101640001C433C60084F083F3C68D1F804C09C43F1
:101650005FEACC3C00D51C433C60521C102AFFF4CE
:101660002FAFBDE8F88F0000083C0140443802402D
:101670000030014000000240000402400008024027
:10168000000C02400010024000140240001802400A
:10169000001C024001488068704700000C000020D8
:1016A0000248816802781144816070470C00002074
:1016B0000B4810B5016841F400710160016841F404
:1016C00080610160016841F480710160032000F0D5
:1016D00073F80F2000F006F800F024F8002010BD89
:1016E000003C024070B50D4D04464FF47A712878E5
:1016F000B1FBF0F00A490968B1FBF0F000F010FB13
:1017000048B9102C07D200222146501E00F034F8B0
:1017100000206C6070BD012070BD00000C00002036
:10172000180000200C4882B0016841F4804101603B
:10173000006800F4804000900748001F016841F0F5
:10174000805101600068002200F0805000900F215D
:10175000901E02B000F010B844380240002809DBA7
:1017600000F01F02012191404009800000F1E020BB
:10177000C0F8001170470000F0B40E4B1B680C4617
:10178000C3F30223C3F10705042D00D90425191D55
:10179000072901D2002300E0DB1E012606FA05F12D
:1017A000491E214099409E40761E16403143F0BCB0
:1017B00001F04DBF0CED00E0064900F0070208689B
:1017C0004FF6FF03184040EA0220034A1043086026
:1017D000704700000CED00E00000FA052DE9F0472D
:1017E0000E46050065D0DFF81481D8F80000F7B286
:1017F00000F00700B04207D288F80070D8F8000067
:1018000000F00700B04254D128683D4C810712D542
:10181000400703D5206840F4E05020602878000796
:1018200003D5206840F4604020602068A96820F05B
:10183000F000084320602878C0072DD03049686840
:101840000839012812D0022813D0032811D00968C2
:10185000890700292DDA216821F003010143216065
:10186000FFF718FF814641F2883A0EE009688903C4
:10187000EFE709688901ECE7FFF70CFFA0EB09012E
:10188000514502D90320BDE8F0872068696800F05F
:101890000C00B0EB810FEFD1D8F80010404601F0FA
:1018A0000701B14207D90770006800F00700B04295
:1018B00001D00120E7E72878400705D52068E968CE
:1018C00020F4E050084320602878000706D52068FF
:1018D000296920F4604040EAC100206000F038F837
:1018E0002168084AC1F30311515CC84006490860E9
:1018F00006480068FFF7F6FE0020C4E7003C0240FF
:1019000008380240CC5800081800002010000020C1
:101910000448054900680968044AC1F38221515C02
:10192000C84070471800002008380240DC58000802
:101930000448054900680968044AC1F34231515C12
:10194000C84070471800002008380240DC580008E2
:10195000154810B5006810F00C02144813D0144953
:10196000042A0FD0082A0ED10F4C241F22682368A6
:1019700002F03F025B0207D52068C0F38810A0FB8D
:10198000010106E0084610BD2168C1F38811A1FBE2
:1019900000010023FEF7C8FC2168C1F30141491C86
:1019A0004900B0FBF1F010BD083802400024F400FB
:1019B000001BB7002DE9F84F04006ED02078DFF847
:1019C0004C93C007A9F104054AD009F1040001684D
:1019D000C1F38101012908D00068C0F38100022809
:1019E0000AD1D9F80000400206D52868800337D50F
:1019F00060680028E1D033E06068B0F5803F10D027
:101A0000B0F5A02F286810D020F480302860286816
:101A100020F4802028606068A8B1FFF73BFE0646EE
:101A20000DE0286840F48030F4E740F4802028601E
:101A3000F7E700BFFFF72EFE801B642873D82868E5
:101A40008003F7D50CE0FFF725FE064605E000BF52
:101A5000FFF720FE801B6428F0D828688003F7D4A5
:101A60002078DFF8AC8280074FF0000A3ED5A74807
:101A7000001D016811F00C0F08D00068C0F3810050
:101A800002280BD1D9F80000400207D4286880074B
:101A900016D5E068012800D112E033E1E068B8B162
:101AA0000120C8F80000FFF7F5FD064605E000BF7D
:101AB000FFF7F0FD801B0228C0D828688007F7D503
:101AC0002868216920F0F80040EAC10028600DE094
:101AD000C8F800A0FFF7DEFD064604E0FFF7DAFDD8
:101AE000801B02281FD828688007F7D420780007B9
:101AF00022D5864F87486169703771B10121016035
:101B0000FFF7C8FD064604E0FFF7C4FD801B02286E
:101B100009D838688007F7D50EE0C0F800A0FFF7B5
:101B2000B9FD064605E082E0FFF7B4FD801B022800
:101B30007DD838688007F7D42078400768D5DFF86B
:101B4000CCB100270BF13C0BDBF80000C0000BD43C
:101B5000DBF8001041F08051CBF80010DBF80000FA
:101B6000012700F0805000906B4E3068C00510D403
:101B7000306840F480703060FFF78CFD009005E025
:101B8000FFF788FD0099401A022850D83068C00538
:101B9000F6D55E4EA0686C3601280FD00528306857
:101BA00010D020F001003060306820F00400306078
:101BB000A068B8B1FFF76EFD00900FE0306840F00C
:101BC0000100F4E740F004003060F7E7FFF762FD42
:101BD0000099411A41F28830814266D83068800706
:101BE000F4D50EE0FFF756FD009007E0FFF752FD39
:101BF0000099411A41F28830814256D830688007F6
:101C0000F4D42FB1DBF8001021F08051CBF8001094
:101C1000A069C8B33D49091D0968C1F381010229C2
:101C20004AD00228504607D0C8F8600000E03CE0E7
:101C3000FFF730FD04463BE04746C8F86000FFF779
:101C400029FD064605E000BFFFF724FD801B0228A2
:101C50002BD828688001F7D4D4E907010843A16A8A
:101C60002E4A490802EB0141626A41EA82110843A7
:101C700094F82C1040EA0161C9F800100120386680
:101C8000FFF708FD044606E03EE000BFFFF702FD57
:101C9000001B022809D828688001F7D534E000BF6E
:101CA000FFF7F8FC001B022802D90320BDE8F88FDB
:101CB00028688001F4D427E00128F7D0D9F8000083
:101CC000E26900F4800191421CD1226A00F03F01D8
:101CD000914217D147F6C071626A0140B1EB821F91
:101CE00010D1A26A4FF0FF3300F4403103EB5202EF
:101CF000B1EB024F06D194F82C1000F07060B0EBFD
:101D0000016F01D00120D1E70020CFE70438024065
:101D100000004742800E4742007000400000FFFF75
:101D200010B5401EB0F1807F01D3012010BD4FF0EF
:101D3000E02460610F21601701F089FC0020A061A0
:101D400007202061002010BD7047704770B590F8E3
:101D50003C20012A32D0012480F83C40022280F845
:101D60003D2003685A689D6822F070060A68324375
:101D70005A60134B02689A4214D0B2F1804F11D0CE
:101D8000104B9A420ED0104B9A420BD00F4B9A42F6
:101D900008D00F4B9A4205D00E4B9A4202D00E4B00
:101DA0009A4204D1496825F080031943916080F874
:101DB0003D40002180F83C10084670BD022070BDF7
:101DC000000001400004004000080040000C0040FA
:101DD00000040140004001400018004010B504001C
:101DE00003D094F83D0010B107E0012010BD0020A1
:101DF00084F83C00204600F01FF8022084F83D00E3
:101E0000211D206801F07CF8012084F8460084F848
:101E10003E0084F83F0084F8400084F8410084F8D4
:101E2000420084F8430084F8440084F8450084F8B4
:101E30003D00002010BD000008B5324A016832485C
:101E4000914210D1016841F0010101600068002257
:101E500000F00100009005211820FFF78DFC1820EC
:101E6000FFF77CFC44E0B1F1804F19D0274A914242
:101E700021D1016841F0020101600068002200F0F8
:101E80000200009005212B20FFF776FC2B20FFF7A6
:101E900065FC002205212C20FFF76EFC2C202DE094
:101EA0001948001F016841F001010160006800F05D
:101EB0000100009008BD164A91420ED1016841F41C
:101EC000803101600068002200F48030009005211C
:101ED0001820FFF751FC182010E00E4A9142E9D17A
:101EE000016841F400310160006800F400300090A6
:101EF000002205211920FFF73FFC1920BDE808400A
:101F0000FFF72CBC000001404438024000040140AF
:101F1000004001400044014090F83D10012901D0EB
:101F200001207047022180F83D100168CA6842F024
:101F30000102CA6000681149884214D0B0F1804F94
:101F400011D00F4988420ED00E4988420BD00E495D
:101F5000884208D00D49884205D00D49884202D0F8
:101F60000C49884204D1816801F00701062903D099
:101F7000016841F00101016000207047000001404C
:101F80000004004000080040000C00400004014034
:101F9000004001400018004070B5044690F83C0035
:101FA0000025012817D0012684F83C60022084F81F
:101FB0003D002068826822F0770222F47F4282602E
:101FC0000868502838D00DDC20284FD005DC90B3AD
:101FD000102811D14AE0022070BD302846D0402898
:101FE0000AD13BE060282FD070280DD0B0F5805F7B
:101FF00003D0B0F5005F12D0012584F83D600020C9
:1020000084F83C00284670BDCB68D1E901212068E6
:1020100000F0DAFF2068816841F0770109E0CB68C1
:10202000D1E90121206800F0CFFF2068816841F4E8
:1020300080418160E1E719E0CA684968206801F0E1
:1020400097F85021206806E0CA684968206801F0C6
:10205000A0F86021206800F0C1FFCEE7CA68496897
:10206000206801F085F840212068F4E722680146E5
:102070001046F0E7704770B50446006801694FF0FC
:102080000005C943890715D4C168C943890711D41C
:10209000E91E0161012020772068806980072046C1
:1020A00002D0FFF7E7FF04E000F0C2F8204600F09E
:1020B00054F9257720680169C943490717D4C168D5
:1020C000C943490713D46FF004010161022020774E
:1020D0002068806910F4407F204602D0FFF7CAFFD5
:1020E00004E000F0A5F8204600F037F925772068D5
:1020F0000169C943090716D4C168C943090712D445
:102100006FF008010161042020772068C069800712
:10211000204602D0FFF7AEFF04E000F089F8204629
:1021200000F01BF9257720680169C943C90617D457
:10213000C168C943C90613D46FF0100101610820BA
:1021400020772068C06910F4407F204602D0FFF756
:1021500091FF04E000F06CF8204600F0FEF82577CF
:1021600020680169C943C90708D1C168C943C907C3
:1021700004D1891E0161204600F0F0F82068016951
:10218000C943090609D4C168C943090605D46FF0DB
:10219000800101612046FFF7D7FD20680169C9432E
:1021A000490609D4C168C943490605D46FF0400106
:1021B0000161204600F0D3F820680169C94389060F
:1021C0000BD4C168C943890607D46FF020010161AF
:1021D0002046BDE87040FFF7B8BD70BD10B586B0B1
:1021E000044614216846FEF748F90E4920688842E3
:1021F00016D10D480021026842F0200202600068FA
:1022000000F0200005904020009002200190012065
:10221000CDE902010320049069460448FFF742F922
:1022200006B010BD004401403038024000140240A6
:10223000704770B5044690F83C0000260D46012812
:102240000FD0012084F83C006AB1042A1DD0082A6E
:102250002FD00C2A3FD00126002084F83C003046C5
:1022600070BD022070BD206800F0C0FE206881694A
:1022700041F0080181612068816921F004018161D8
:10228000206881692A69114311E0206800F0DEFEB0
:102290002068816941F4006181612068816921F4CD
:1022A00080618161206881692A6941EA0221816136
:1022B000D2E7206800F000FF2068C16941F0080102
:1022C000C1612068C16921F00401C1612068C16950
:1022D0002A69114311E0206800F022FF2068C169DB
:1022E00041F40061C1612068C16921F48061C1616C
:1022F0002068C1692A6941EA0221C161ACE710B5D1
:10230000040003D094F83D0010B107E0012010BD97
:10231000002084F83C00204600F01EF8022084F8DB
:102320003D00211D206800F0EBFD012084F84600EF
:1023300084F83E0084F83F0084F8400084F84100AF
:1023400084F8420084F8430084F8440084F845008F
:1023500084F83D00002010BD7047704770477047FB
:10236000704710B504460068406994F83D10C0F30A
:10237000C010212911D180B12068143050E8001F0D
:1023800021F0800140E80012002AF5D1606B08B10D
:10239000FEF7F3FE204600F03DFF2068406994F808
:1023A0003E10C0F38010222911D180B12068143072
:1023B00050E8001F21F0400140E80012002AF5D14A
:1023C000A06B08B1FEF7D9FE204600F0FCFE00200D
:1023D00010BD7047F8B5016804460868CA684B69C3
:1023E00010F00F0F4FF0000559D003F0010602F472
:1023F0009077374365D0C10705D0D10503D5216C4F
:1024000041F001012164410705D5D90703D0216CB2
:1024100041F002012164810705D5D90703D0216C61
:1024200041F004012164010707D502F02001314386
:1024300003D0216C41F008012164216C00293AD0BD
:10244000800604D5900602D5204600F0F1FE2068F3
:102450004069216CC0F38010090700D460B32046A6
:1024600000F0B1FE20684069400621D52068143094
:1024700050E8001F21F0400140E80012002AF5D189
:10248000A06BA8B16C490165A06BFEF7BFFE0028E8
:1024900011D0A06B016D01B0BDE8F0400847830684
:1024A0000FD593060DD52046BDE8F84000F0C0BE1C
:1024B0002046FFF78EFFF8BD2046FFF78AFF256410
:1024C000F8BD266B2023012E79D1C60677D5D60616
:1024D00075D50868486800904869400640D5A16BEA
:1024E000086840680004000CEAD0A28D8242E7D957
:1024F000E085C869B0F5807F2DD020680C3050E8A9
:10250000001F21F4807140E80012002AF5D12068F4
:10251000143050E8001F21F0010140E80012002AA9
:10252000F5D12068143050E8001F21F0400140E848
:102530000012002AF5D184F83E30256320680C3063
:1025400050E8001F21F0100140E80012002AF5D1E8
:10255000A06BFEF712FEA08DE18D401A81B229E03A
:10256000A08DE18D401A81B2E08D0028A8D000290D
:10257000A6D020680C3050E8002F22F4907240E87A
:102580000026002EF5D12068143050E8002F22F0EC
:10259000010240E80026002EF5D184F83E30256384
:1025A00020680C3050E8002F22F0100240E8002391
:1025B000002BF5D12046FFF7D3FEF8BDFFE7050657
:1025C0002BD5150629D594F83D002128F5D1A06812
:1025D000B0F5805F01D12069B0B1206A411C216251
:1025E000216800784860E08C401E0004000CE08404
:1025F000E3D12068C16821F08001C1602068C16812
:1026000041F04001C160D8E7206A0088C0F30800AB
:102610004860206A801C2062E5E74006CDD5500660
:10262000CBD5CA68204622F04002CA6084F83D300B
:1026300000F0A5F9C1E70000B731000870B504004B
:1026400004D094F83D00002510B106E0012070BDD3
:1026500084F83C50204600F023F8242084F83D0004
:102660002068C16821F40051C160204600F040FE9E
:102670002068016921F4904101612068416921F0DD
:102680002A0141612068C16841F40051C16025649C
:10269000202084F83D0084F83E00002070BD00003A
:1026A0002DE9F04F87B0044614216846FDF7E5FE9A
:1026B000A748DFF898821438D4F800C0A44B022150
:1026C00003224027002506154FF00709C44572D1A3
:1026D000D3F800C0AA464CF0100CC3F800C01B6829
:1026E00003F010030593036843F0020303600368DB
:1026F00003F002030593036843F0010303600068DD
:10270000884600F0010005908020CDE90008CDE961
:10271000025293466946CDF810908E48FEF7C2FEED
:102720007010CDE90008CDE9025B6946CDF8109044
:102730008948FEF7B7FEDFF82882884940464FF007
:102740000069C8F80010C0E90195C0E90356C8F84F
:1027500014504FF4403BC8F81850C8E9075BC8F85C
:102760002450FEF735FE08B1FEF7CFF87C4DC4F8D3
:1027700038807A486035C8F838407830AF60C5E9AD
:102780000009C5E903A6C5F814A0C5F818A0C5E955
:1027900007AB2846C5F824A0FEF71AFE08B1FEF7DD
:1027A000B4F86563002205212520AC63FEF7E4FF41
:1027B000252064E0FFE7DFF8AC81C44564D1644BB9
:1027C000AA461B1FD3F800C04CF4802CC3F800C0ED
:1027D0001B6803F480230593036843F0040303603C
:1027E000006800F0040005904FF440608DE823007D
:1027F000CDE9032969465C48FEF754FEDFF8609195
:102800005A4909F1C00948464FF00068C9F800105C
:10281000C0E90185C0E90356C9F81450C9F8185039
:10282000C9F81C50C9F82050C9F82450FEF7D0FD53
:1028300008B1FEF76AF84E4DC4F838904B48C9F815
:1028400038403030AF60C5E90008C5E903A6C5F8D7
:1028500014A0C5F818A0C5F81CA0C5F820A02846EB
:10286000C5F824A0FEF7B4FD08B1FEF74EF8656385
:10287000002205212720AC63FEF77EFF2720FEF70C
:102880006DFF07B0BDE8F08FDFF8E880C445F8D1F0
:10289000D3F800C04CF0200CC3F800C01B6803F054
:1028A00020030593036843F040030360006800F0D1
:1028B000400005904FF484408DE823000820CDE9C6
:1028C000032069462C48FEF7EDFDDFF8A48023497C
:1028D00008F16008183940464FF0206AC8F8001027
:1028E000C0E901A5C0E90356C8F81450C8F818504B
:1028F000C8F81C50C8F82050B146C8F82450FEF75C
:1029000067FD08B1FEF701F8194EC4F83880C036EB
:10291000C8F83840C6E90275C6E90495B5610F48A4
:10292000F561356260307562C6E9000A3046FEF72F
:102930004FFD08B1FDF7E9FF66630022052147203E
:10294000B463FEF719FF472099E70000001001402B
:10295000443802400004024000000240406402404B
:10296000E0050020004800400008024028600240C6
:102970000007002000140140001802407047704713
:10298000FEE700000F4810B50D49016003214160CA
:1029900000214FF410228160C0E903124FF40012AD
:1029A0004261017641768176C17601774177FEF703
:1029B0001EFA002803D0BDE81040FDF7A6BF10BDE9
:1029C000006400405C0300200F4810B50D49016011
:1029D0000321416000214FF410228160C0E90312FD
:1029E0004FF400124261017641768176C17601771B
:1029F0004177FEF7FCF9002803D0BDE81040FDF751
:102A000084BF10BD0068004084030020214808B541
:102A1000016841F480010160016801F480010091C6
:102A2000016841F4001101600068002200F4001008
:102A3000009005210C20FEF79FFE0C20FEF78EFE75
:102A4000002205210E20FEF797FE0E20FEF786FEDF
:102A5000002205213920FEF78FFE3920FEF77EFE89
:102A6000002205213A20FEF787FE3A20FEF776FE87
:102A7000002205214520FEF77FFE4520FEF76EFE71
:102A8000002205214620FEF777FEBDE808404620DB
:102A9000FEF764BE3038024010B58EB01C220B49E0
:102AA0006846FDF7B8FC0021684601F003FB084CBE
:102AB00006491C2220601C3107A8FDF7ACFC002150
:102AC00007A801F0F7FA60600EB010BD8C5800083E
:102AD000000000201D4808B5016841F002010160B6
:102AE000016801F002010091016841F040010160BC
:102AF000016801F040010091016841F001010160AD
:102B0000016801F001010091016841F008010160D4
:102B1000016801F008010091016841F004010160C1
:102B2000016801F004010091016841F08001016039
:102B3000016801F080010091016841F0200101600D
:102B4000006800F02000009008BD0000303802400E
:102B500010B588B01C216846FDF78FFC1548144954
:102B6000002401605321C0E9011440F2CF71C0E993
:102B700003148461FFF732F908B1FDF7C6FE0D4872
:102B8000FFF7BDFB08B1FDF7C0FE6020CDE90004F2
:102B900002940022694607480494FFF74AFB08B1F3
:102BA000FDF7B3FE0348FFF719FB08B010BD0000A6
:102BB00000440140CC04002010B586B00024184821
:102BC00000940194029403940494144905940160C0
:102BD00044F29F11C0E9011442F20F71C0E90314DD
:102BE00044618461FFF7FAF808B1FDF78EFE4FF4F7
:102BF0008050009069460A48FFF7CEF908B1FDF70A
:102C000084FE049404A906480594FFF79FF8002861
:102C100001D0FDF77AFE06B010BD000000000140B3
:102C2000AC03002010B586B000241648009401942F
:102C30000294039404944FF080410594016042F2A1
:102C4000D001C0E901146321C0E903148461FFF7D6
:102C5000C5F808B1FDF759FE4FF480500090694661
:102C60000848FFF799F908B1FDF74FFE049404A94D
:102C700004480594FFF76AF8002801D0FDF745FEE7
:102C800006B010BDF403002010B586B0002417482C
:102C90000094019402940394049413490594C0E9A8
:102CA00000144FF6FF71C0E9024104614461846180
:102CB000FFF794F808B1FDF728FE4FF4805000901C
:102CC00069460A48FFF768F908B1FDF71EFE04944B
:102CD00004A906480594FFF739F8002801D0FDF74C
:102CE00014FE06B010BD0000000401403C040020AA
:102CF0001FB5002110480091019102910D4A0391E6
:102D0000026044F29F12C0E901216322C0E903215D
:102D10008161FFF763F808B1FDF7F7FD4FF48050CC
:102D2000009069460448FFF737F9002801D0FDF705
:102D3000ECFD1FBD00400140840400200C4810B58C
:102D40000A4901604FF4E1314160002181600C22A9
:102D5000C160C0E904128161C161FFF76FFC002806
:102D600003D0BDE81040FDF7D0BD10BD00100140FC
:102D7000140500200C4810B50A4901600B49416058
:102D8000002181600C22C160C0E904128161C1612F
:102D9000FFF754FC002803D0BDE81040FDF7B5BD97
:102DA00010BD00000048004058050020A08601002A
:102DB0000C4810B50A4901604FF4E131416000212F
:102DC00081600C22C160C0E904128161C161FFF71A
:102DD00035FC002803D0BDE81040FDF796BD10BDBE
:102DE000001401409C050020FEE7FEE7012001F0F1
:102DF00055F9FBE710B5FEF753FC01F063FF01281E
:102E000003D0BDE8104001F0EFBE10BD30B593B067
:102E100030216846FDF731FB14210CA8FDF72DFB8E
:102E20001D480025016841F080510160006800F0F4
:102E3000805011901948016841F480410160006898
:102E4000022400F4804011900120009000040190C1
:102E50008001CDE9064006200890A820CDE90904AC
:102E600004200B906846FEF7A5FD08B172B6FEE798
:102E70000CA90F2081E831004FF4A0500F904FF4BF
:102E80008050109005210CA8FEF7A8FC002801D066
:102E900072B6FEE713B030BD40380240007000400B
:102EA0000248016841F470010160704788ED00E05C
:102EB00010B50448FFF7DFF8BDE810400248FFF7FF
:102EC000DAB80000AC0300208404002010B50448E8
:102ED000FFF7D1F8BDE810400248FFF7CCB800007A
:102EE000AC030020CC0400200148FFF7C4B8000068
:102EF0003C0400200148FFF7BEB800003C0400205D
:102F0000F0B50268254C264D264E274F274B4FF033
:102F1000804CA04209D0604507D0A84205D0B042FD
:102F200003D0B84201D0984204D122F0700E4A6812
:102F300042EA0E02A0421BD0604519D0A84217D029
:102F4000B04215D0B84213D0984211D0184DA842C3
:102F50000ED0184DA8420BD0174DA84208D0174DDF
:102F6000A84205D0164DA84202D0164DA84203D162
:102F700022F44075CA682A434D6922F080022A4330
:102F800002608A68C2620A688262A04201D09842E6
:102F900001D10969016301214161F0BD00000140D7
:102FA0000004004000080040000C00400004014004
:102FB000004001400044014000480140001800402A
:102FC000001C00400020004010B5846842EA032243
:102FD00024F47F440A432243826010BD826822F0B9
:102FE00070020A4342F0070181607047F0B5026A3F
:102FF00022F001020262036A42688469124E24F0E0
:1030000073050C682C4323F002058B682B430D4D90
:10301000A84201D0B04205D123F00807CB683B435A
:1030200023F00403A84201D0B04205D14D6922F437
:10303000407215438A692A4342608461496841634A
:103040000362F0BD0000014000040140F0B5026AD7
:1030500022F010020262026A436884690D6824F457
:10306000E64444EA05248D6822F0200242EA051273
:103070000F4D104EA84201D0B04206D1CF6822F0C9
:10308000800242EA071222F04002A84201D0B04278
:1030900007D14D6923F4406343EA85038D6943EA10
:1030A000850343608461496881630262F0BD00006A
:1030B0000000014000040140F0B5026A22F4807271
:1030C0000262026A4368C46922F4007224F0730544
:1030D0000C68124E2C438D6842EA05220E4DA84220
:1030E00001D0B04206D1CF6822F4006242EA072242
:1030F00022F48062A84201D0B04207D14D6923F486
:10310000405343EA05138D6943EA05134360C461E4
:103110004968C1630262F0BD000001400004014043
:1031200030B5026A22F480520262046A4268C369BE
:103130000D6823F4E64343EA05238D6824F4005424
:1031400044EA0534084DA84202D0084DA84204D1F3
:103150004D6922F4804242EA85124260C3614968A7
:103160000164046230BD0000000001400004014021
:1031700010B5036A046A24F001040462846924F02F
:10318000F00444EA021423F00A020A438461026252
:1031900010BD10B5036A23F0100303628369046A4B
:1031A00023F4704343EA023224F0A00343EA0111FE
:1031B0008261016210BD10B5806B0021C185C184A0
:1031C000FFF707F910BD01680C3151E8002F22F418
:1031D000907241E80023002BF5D10168143151E8C9
:1031E000002F22F0010241E80023002BF5D1016BF2
:1031F000012909D101680C3151E8002F22F0100299
:1032000041E80023002BF5D1202180F83E10002159
:103210000163704701680C3151E8002F22F0C002B1
:1032200041E80023002BF5D1202180F83D107047A4
:1032300008B590F83E10222901D0022008BD82680E
:103240004FF480539A4201D1016921B1816A9A42B7
:103250001BD04AB10AE00268816A5268C2F30802D0
:103260000A80816A891C08E0026972B102685268AA
:1032700002F07F020A70816A491C8162C18D491E79
:103280000904090CC18503D019E002685268F1E70E
:103290000168CA6822F02002CA600168CA6822F484
:1032A0008072CA6001684A6922F001024A612021E5
:1032B00080F83E10016B012903D0FFF75FFB00206F
:1032C00008BD0021016301680C3151E8002F22F094
:1032D000100241E80023002BF5D101680A68D206EC
:1032E00002D50A6849680091818DFFF739F8E6E751
:1032F00070B5044600680169E26821F44051114349
:1033000001612169A068E2690843616911430843CA
:103310002168CA6849F20C639A430243CA60206874
:103320004169A26921F4407111434161314920682A
:10333000884202D03049884202D1FEF7F9FA01E012
:10334000FEF7E6FAE2690023192164253226B2F578
:10335000004F626828D0A0FB0101930F9200FCF798
:10336000E3FF0146B0FBF5F06FF01802504301EBAC
:10337000800006EB0010B0FBF5F000F0F002B1FBAE
:10338000F5F002EB0012B1FBF5F06FF018035843B3
:1033900001EB800006EB0010B0FBF5F000F00F0031
:1033A00021681044886070BDA0FB010192185B4148
:1033B000FCF7BAFF0146B0FBF5F00201B1FBF5F0F6
:1033C0006FF01803584301EB800006EBC000B0FB20
:1033D000F5F000F0F80002EB4002B1FBF5F05843C5
:1033E00001EB800006EBC000B0FBF5F000F0070039
:1033F000D6E7000000100140001401400D4808B558
:1034000000680168C1F3001171B101684068009063
:103410000848FEF7A6FF084800684068C0F164014C
:103420000648016001214160BDE808400148FEF7FF
:10343000D1BF000014050020E0050020B4000020EA
:1034400010B50448FDF756FABDE810400148FEF7F4
:10345000C1BF0000580500200C4808B501680A6883
:103460004A680092CA6842F01002CA6001684A695C
:1034700042F040024A61122100910168044B806BC6
:10348000A3F11802091DFDF7D5F808BD5805002065
:10349000C846002070B5044600884C4DC0F30A03AE
:1034A0002B806078A178C00840EA4110C0F30A017F
:1034B0006980A078E278800940EA82002279A3F549
:1034C000806340EA8220C0F30A02AA8020796679EC
:1034D000400840EAC610C0F30A06EE806079A1F504
:1034E0008061C0F30110A8726079A2F58062800942
:1034F000E872E088A8812089E88160892882207BA1
:10350000A874607BE874E089A882208A2B80698097
:10351000AA80A6F58066EE80A0F5806028812C4EFA
:103520000020215C3154401C0728FADD3321284853
:1035300000F0AAFB08203218215C401C02F8081C8D
:103540000F28F8DD3421224800F09EFB207C3070EB
:10355000607C7070A07CB0701D48A17B223801F0A7
:103560000102428001F00202828001F00402C28066
:1035700001F00802028101F04002428101F0800264
:10358000828101F01002C28101F020010182A97C38
:103590000170E97C4170A98A01F48072428201F4D1
:1035A0000072828201F48062C28201F400620283AE
:1035B00001F48052428301F40052828301F480427C
:1035C000C28301F40041018470BD0000E046002088
:1035D000AA0000200148FEF7FDBE00009C05002067
:1035E0000C4808B501680A684A680092CA6842F047
:1035F0001002CA6001684A6942F040024A61C8216B
:1036000000910168044B806BA3F1C802091DFDF70E
:1036100011F808BD9C050020E8450020FEE703B432
:1036200001984100009850EAC12018BF04204A0DBB
:1036300018BF40F0010040F2FF72B2EB515F08BFCB
:1036400040F00200012808BF052002B070470907BA
:10365000090E002804DB00F1E02080F80014704718
:1036600000F00F0000F1E02080F8141D704700000A
:1036700070B59B482DED020B2DED068B079D25F0B7
:103680000044A04218DC9748844202DC0AD1069824
:1036900040B19DED060BBDEC068B02B0BDE870405D
:1036A00000F0C6BA002DCCBF9FED8F0B9FED900BA5
:1036B000BDEC068B02B070BD8F48A04215DD8F486F
:1036C000A042D8BF4FF0FF3458DD9DED060B51EC02
:1036D000100BFFF7A4FF042808BF00F0BDFA9DED12
:1036E000060BBDEC068B02B070BD9DED060B51ECD8
:1036F000100B00F0D9FBCDE9060181489FED828BCC
:10370000A0423CDD8248A0421FDD00249FED82AB39
:103710009DED060B53EC1A2B51EC100B01F0E6FB60
:103720009DED060B41EC190B53EC1A2B51EC100BD1
:1037300001F078FE53EC182B01F0B4FF53EC192B79
:1037400001F088FCCDE9060149E09DED060B01245E
:1037500053EC182B51EC100B01F0C8FB9DED060B40
:1037600041EC190B53EC182B51EC100B01F09AFFA4
:1037700053EC192B01F06EFCCDE906012FE06848EF
:10378000A0421FDD02249FED689B9DED060B53ECCC
:10379000192B51EC100B01F045FE53EC182B01F0E6
:1037A000A5FB9DED060B41EC180B53EC192B51ECCE
:1037B000100B01F077FF53EC182B01F04BFCCDE917
:1037C00006010CE09DED060B032453EC102B9FED3E
:1037D000580B51EC100B01F03DFCCDE906019DEDBD
:1037E000060B53EC102B51EC100B01F01BFE41ECBF
:1037F000180B53EC182B01F015FE41EC190B4E4839
:103800000621B0EE490AF0EE690A784400F094F916
:1038100053EC182B51EC100B01F004FE41EC180B8B
:103820004648B0EE490AF0EE690A0521784400F0F6
:1038300083F953EC192B51EC100B01F0F3FD41EC23
:10384000100B51EC180B53EC102B002C0EDA01F07E
:103850004DFB9DED061B53EC112B01F0E3FD9DED9F
:10386000061B53EC112B01F011FF35E001F03EFB7C
:103870009DED061B53EC112B01F0D4FD41EC100B18
:103880002F48784400EBC40090ED001B51EC100B66
:1038900053EC112B01F006FF9DED061B53EC112B91
:1038A00001F000FF41EC100B2648784400EBC40007
:1038B00090ED001B51EC100B53EC112B01F0E6FEC8
:1038C00041EC100B002DA2BFBDEC068B02B070BD09
:1038D00051EC100B01F0CCFA41EC100B01E70000A9
:1038E000000010440000F07F182D4454FB21F93FE4
:1038F000182D4454FB21F9BF0000DC3F0000203E9E
:103900000000F33F00000000000000000000F03F56
:103910000000E63F00000000000000000000004042
:103920000080034000000000000000000000F83F9D
:10393000000000000000F0BF42210000F82000005D
:10394000822000003A20000070B56B4E2DED040B74
:103950002DED028B82B0DDF81CC0DDE905235C4251
:103960002CF000411C4341EAD474049D22F0004035
:10397000B44205D86C422C4340EAD474B4420BD90B
:103980009DED061B9DED040B02B0BDEC028B04B057
:10399000BDE8704000F056B9ACF14054A4F17F642A
:1039A0001C430BD0022404EAAC7444EAD2740543ED
:1039B0009FED538B9FED542B07D015E09DED040B2D
:1039C00051EC100B00F058F942E0002C11BF012C13
:1039D0009DED040B02B0BDEC028B04BF04B070BDC2
:1039E000022C38D0032C3BD00B439FED491B9FED9D
:1039F0004A0B0AD0B14218D1B04209D121F080411E
:103A000020F08040079105900FE0002A15DA10E0C1
:103A1000434B7B44002C08BF93ED000B0DD0012CD1
:103A200010D0022C17D0032C1AD0B0421DD1002A7E
:103A300003DAB0EE410AF0EE610A02B0BDEC028B8F
:103A400004B070BD93ED000B51EC100B01F010FAB7
:103A500041EC100BF1E7B0EE480AF0EE680AECE733
:103A6000B0EE420AF0EE620AE7E7401A00153C2881
:103A7000C8BF8DED000B19DCBCF1000FBEBF10F10B
:103A80003C0F9FED290B8DED000B0FDB9DED060B21
:103A900053EC102B9DED040B51EC100B01F0DAFAF6
:103AA00000F002FA00F0E8F8CDE90001002C08BFB0
:103AB0009DED000BC1D0012C10D0022C9FED1C0BF2
:103AC00053EC102B9DED000B51EC100B0DD001F0C1
:103AD000E9FD53EC182B01F0E5FDB9E7019880F002
:103AE000004001909DED000BA7E701F0DBFD53ECDA
:103AF000182B01F0CBFDABE70000F07F00000000C9
:103B0000182D4454FB210940182D4454FB2109C0B1
:103B1000182D4454FB21F9BF182D4454FB21F93FC3
:103B20006A1F00000000000000000000000000000C
:103B3000075C143326A6A13C70B504462DED028B1C
:103B40004D1E00EBC500B0EE408AF0EE608A90EDAD
:103B5000000B35F0060017D053EC182B51EC100B6E
:103B600001F060FC41EC100B6D1E04EBC50090ED04
:103B7000001B51EC100B53EC112B01F0B7F941EC89
:103B8000100B35F00600E7D1022D36D0042D1CD0E5
:103B9000062D1CBFBDEC028B70BD53EC182B51ECF5
:103BA000100B01F03FFC94ED0A1B53EC112B01F0BC
:103BB0009DF953EC182B01F035FC94ED081B53ECE8
:103BC000112B01F093F941EC100B53EC182B51EC35
:103BD000100B01F027FC94ED061B53EC112B01F0A8
:103BE00085F953EC182B01F01DFC94ED040B53ECFC
:103BF000102B01F07BF941EC100B53EC182B51EC1E
:103C0000100B01F00FFC94ED021B53EC112B01F093
:103C10006DF953EC182B01F005FC94ED001B53ECEF
:103C2000112B01F063F9BDEC028B41EC100B70BD60
:103C300010B553EC102B51EC100B01F057F941EC7F
:103C4000100B10BD10B553EC112B51EC100B01F003
:103C50004DF941EC100B10BD9FED050B10B553EC69
:103C6000102B51EC100B01F0DDFB41EC100B10BDE3
:103C7000000000000000001010B541EC100BFFF731
:103C8000F7FC51EC100B10BD00B587B00246009157
:103C90000021029103910821049101236946024801
:103CA000FCF747FE07B000BD5C0300202DE9F04F94
:103CB00000242DED068B81B0DFED4A8A4A4EDFF8F5
:103CC00034B19FED4A9BA6F1020A0BF5887906F103
:103CD00016089FED49AA00BF04EB04110BEB810508
:103CE000B0EE680A4049F0EE400A2A31284600F05A
:103CF0005FFAB08800F0F4F851EC100B01F0C4F852
:103D000004EB440109EB810708EE100AB98836F884
:103D1000140000F0ABF800EE100AF0EE480A284656
:103D2000B8EE400A00F072FABDEEC00A10EE100ABA
:103D300028F81400B08800F0D3F88AED040BB9F825
:103D40001C10B08800F092F8AAF8000000F0B8F853
:103D500053EC192B51EC100B01F0D4FA0FD100F0F9
:103D600059F9B0EE491AF0EE691A53EC112B51ECE7
:103D7000100B01F0C7FA02D1002128F81410B0EEA0
:103D80004A0A19492846F0EE400A1E3100F010FA9E
:103D900038F9140000EE100AB7F90600F8EEC00A70
:103DA00000EE100A2846B8EEC00A00F0ADF9BDEEEC
:103DB000C00A641CE4B210EE100A042C78808BD385
:103DC000B9F926100091B9F91A30B9F90E20B9F9EC
:103DD0000210002000F0B8FC01B0BDEC068BBDE87D
:103DE000F08F000000401C46C200002000000000D0
:103DF00000000000F84600200080BB450A49896B9E
:103E0000814207D10068016841F400210160074840
:103E1000FFF740BB0649896B814204D10068016805
:103E200041F400210160704758050020B046002091
:103E30009C0500200A49896B814207D1006801680E
:103E400021F4002101600748FFF724BB0649896B74
:103E5000814204D10068016821F4002101607047AB
:103E600058050020C84600209C050020024610B5D9
:103E700002F580530846994202DDA1F500500CE09E
:103E8000811A144609B2824201DC084610BDA2F52F
:103E90008053984203DA00F5005000B210BD83420F
:103EA000FCDCA042F1DB10BD82B0CDE9000121F0C5
:103EB000004001909DED000B02B051EC100B7047DB
:103EC000054810B5B0F9020001F058FA41EC100BAA
:103ED000024880ED000B10BDE0460020F8000020F5
:103EE00010B52DED048B9FED419BB0EE498AF0EEAD
:103EF000698AFFF7E5FF53EC192B51EC100B01F029
:103F00008FFB4DD3FFF7DCFF53EC192B51EC100B5B
:103F100001F0F8F90BD100F07DF853EC192B51ECBE
:103F2000100B01F07DFB02D29FED328B4AE0FFF7D0
:103F3000C7FF53EC192B51EC100B01F0E3F90BD137
:103F400000F068F853EC192B51EC100B01F02EFA2D
:103F500002D29FED2A8B35E0FFF7B2FF53EC192B0D
:103F600051EC100B01F022FA08D200F053F853EC98
:103F7000192B51EC100B01F053FB11D9FFF7A0FFE7
:103F800053EC192B51EC100B01F010FA1AD200F07F
:103F900041F853EC192B51EC100B01F007FA11D238
:103FA000FFF78EFFB0EE408AF0EE608A00F032F844
:103FB000B0EE481AF0EE681AFFF7C6FCB0EE408A81
:103FC000F0EE608A9FED0F0B51EC180B53EC102BA9
:103FD00001F040F89FED0D1B53EC112B01F022FA7C
:103FE000BDEC048B41EC100B10BD00000000000084
:103FF0000000000044174154FB21F93F441741548D
:10400000FB21F9BF44174154FB2109400000000087
:104010000000B040054810B5B0F9000001F0AEF95D
:1040200041EC100B024880ED020B10BDE046002071
:10403000F8000020FDF73CFBFEF7E8FEFEF74AFD26
:10404000FEF7E4FCFEF79EFCFCF77CFAFEF7BCFCF6
:10405000FCF7A2FAFEF7B0FDFEF7E4FDFEF714FE52
:10406000FEF746FEFEF774FDFEF768FEFEF782FEE1
:10407000FFF7F2F9FEF79CFEFFF7B2FA0348FDF7EF
:104080004BFFFEF709FD00F010F8FEE7AC0300203F
:1040900001460020842900D0C81C704710B500B923
:1040A000012000F095FC002010BD10B500F0B6FC1A
:1040B000002010BD7FB50D4604464169B0F90800E7
:1040C00081B1A16971B1FFF7E3FFD4E905128DE871
:1040D0000700D4E900102B46226900F0C8FD0390C8
:1040E00004B070BDFFF7D4FF03A9CDE90001208A19
:1040F0002B4682B2D4E9001000F08CFD012801D0DB
:104100000020EDE70398EBE7D0ED0E1AC0ED0F1A93
:10411000C0ED050A80ED060A30EEC00A80ED0E0AF9
:10412000D0ED000A20EE801A80ED081AD0ED090AC1
:1041300090ED012A42EE000A30EE610AC0ED090A54
:1041400090ED0B2A80ED0C2A80ED0B0AD0ED021ABF
:1041500061EE801AC0ED0A1A90ED040AF4EEC00A6E
:10416000F1EE10FA09DCB1EE400AF4EEC00AF1EE0D
:1041700010FA02D390ED090A01E080ED090A31EE50
:10418000000A30EE210A80ED070AD0ED030AB4EEF2
:10419000E00AF1EE10FA06DCF1EE600AB4EEE00A95
:1041A000F1EE10FA01D2C0ED070A90ED070A704750
:1041B000002827D0002925D091ED001A80ED001AA3
:1041C00091ED011A80ED011A91ED021A80ED021AAB
:1041D00080ED030A9FED0C0AC0ED040A80ED0D0A84
:1041E00080ED0C0A80ED0B0A80ED070A80ED0A0ACB
:1041F00080ED090A80ED080A80ED100A80ED0F0AB3
:1042000080ED0E0A704700000000000080ED050AF6
:1042100030EE600AC0ED060A90ED0E1A10EE101A8C
:104220002A4ADFED2B0A80ED0F1A914202DD30EEB3
:10423000600A06E010EE101A264A914201D930EECB
:10424000200A80ED0E0AD0ED000A60EE800AC0ED73
:10425000080AD0ED091A90ED012A42EE001A30EE5C
:10426000410AC0ED091A90ED021A20EE011A80ED04
:104270000A1AD0ED072A90ED030AF4EEC02AF1EEF7
:1042800010FA02DD80ED070A08E0B1EE402AF4EEF4
:10429000C22AF1EE10FA01D280ED072A70EEA10ACF
:1042A00070EE810AC0ED070AF4EEC00AF1EE10FAD2
:1042B00009DCB1EE400AF4EEC00AF1EE10FA02D3C6
:1042C00090ED070A704780ED070A704700F07F45C0
:1042D00000F8FF4500F07FC52DE9F041184C0F466E
:1042E0000546E6682068001D00F0AAFA38B9206883
:1042F00090F82C1001208840216981432161681CBD
:1043000007D137B12168BDE8F0410E48091D00F022
:10431000DBBA20683544B5424560216805D2A06B00
:10432000BDE8F041091D00F0B7BA606B091D00F04F
:10433000B3FAA06A854200D2A562BDE8F081000010
:104340001C000020FC0800202DE9F041054600F08B
:10435000C7FA2E4CA068401CA06020682C4F10B1FA
:10436000606940B32DE02560A068012829D10026AE
:1043700006EB860007EB800000F080FA761C072E23
:10438000F6D323488C3000F079FA2148A03000F0B1
:1043900075FA1F48B43000F071FA1D48C83000F0BB
:1043A0006DFA1B48DC3000F069FA19488C30606304
:1043B0001430A06305E02068E96AC06A884200D82A
:1043C0002560606A401C6062E96A012022698840B9
:1043D0001043206101EB810007EB8000291D00F0F4
:1043E00073FA00F09DFA606900280CD02068E96A31
:1043F000C06A884207D207494FF080500860BFF377
:104400004F8FBFF36F8FBDE8F08100001C000020CC
:104410002008002004ED00E010B5044690F851009B
:1044200058B101280CD002280FD0502080F31188F9
:10443000BFF34F8FBFF36F8FFEE7206B00F084FA5E
:104440002046BDE8104000F07FBA10BD10484FF480
:104450007051420706D0C01D0D4920F00700411AD7
:10446000C1F570510B4A00230144C2E90003083929
:10447000183A21F0070111604B600B600B1AC0E97C
:10448000001393604FF0004053605061704700008C
:104490001009002070000020144E154CA6F1C8072A
:1044A0004FF08058DFF84C9012E000BF00F018FA8F
:1044B000F068C568281D00F0C3F9A068401EA06020
:1044C0006068401E606000F02BFA2846FFF7A4FFEA
:1044D00060680028EAD138680128F9D9C9F8008055
:1044E000BFF34F8FBFF36F8FF2E70000E8080020A3
:1044F0001C00002004ED00E02DE9F0479A46DDE9BC
:10450000098481466FF00303206B03EB82021044A1
:10451000089E20F00707780707D0502080F3118805
:10452000BFF34F8FBFF36F8FFEE7002561B100200F
:1045300023180A5C83F834200A5C12B1401C10284E
:10454000F6D384F8435001E084F83450072E00D3AA
:104550000626E662C4E91165201D00F09AF904F10F
:10456000180000F096F92461C6F107006462A061AA
:10457000E56484F8505052464946384600F0C0F889
:104580002060B8F1000F01D0C8F80040BDE8F08706
:1045900030B5114900E011460A688242FBD34B68EE
:1045A0005C18844203D14068184448600846436858
:1045B0001C18944209D1084C183C2468A24209D026
:1045C00052681A4442600A6812680260814200D050
:1045D000086030BD0460F9E7700000200648416BB8
:1045E000096829B1416BC968C96849688162704727
:1045F0004FF0FF31FAE700001C0000200848406837
:10460000401C4FF0500080F3118804D0BFF34F8F4F
:10461000BFF36F8FFEE7BFF34F8FBFF36F8FFEE7E0
:10462000780000202DE9F0410546002700F02CFA23
:10463000324E306808B9FFF709FF706905424ED164
:10464000C5B3083568070ED005F00700C0F10800B3
:104650000544680707D0502080F31188BFF34F8FBF
:10466000BFF36F8FFEE72DB37068854237D82348BC
:10467000183001460C6801E020460C466168A942EA
:1046800002D221680029F7D131688C4227D007680F
:104690002168016060680837411B10290FD9601933
:1046A000420708D0502080F31188BFF34F8FBFF32B
:1046B0006F8FFEE713E041606560FFF769FF616897
:1046C0007068401A7060B268904200D2B060706941
:1046D00001430020C4E90001F068401CF06000F0D4
:1046E00065FB780707D0502080F31188BFF34F8F08
:1046F000BFF36F8FFEE73846BDE8F0815800002019
:1047000010B5031F4FF080741C601B1F21F00101C6
:104710001960191F044B0B6014390A60091F6FF0F0
:10472000020244380A6010BDFD450008054800211A
:10473000018041808180C180FFF7B8FA0120FFF736
:10474000ADFCF9E7C200002010B588B00A9C18B390
:1047500040F2FF200290002004900590082006906F
:10476000080A8DF800008DF80110100A8DF802007B
:10477000180A8DF804008DF80530200A8DF806001F
:104780008DF803208DF8074001236A4602A90448EA
:10479000FCF7CFF808B010BD40F2FF10DAE70000D8
:1047A0005C03002038B5044600680168406800904A
:1047B000204884421BD1A06B0068016821F00101F0
:1047C0000160A06B01684A68062A06D109680903DE
:1047D00001D5416C00E0C16B8847A16B18200968C6
:1047E0004860A06B0068016841F001010160124857
:1047F00084421DD1A06B0068016821F001010160B5
:10480000A06B01684A680D4BC2F1C8021A700968B2
:10481000090301D5416C00E0C16B8847A16BC8203A
:1048200009684860A06B0068016841F001010160FF
:1048300038BD0000580500209C050020860000209F
:10484000D0E9013201699A60D0E901235A604A68CF
:10485000824201D182684A60002202610868401EDB
:104860000860086870470000034B036003F15400C0
:1048700008608020106070470801002000F10801E6
:104880004FF0FF32C0E90112C160016100210160F7
:10489000704700210161704730B50B685A1C02D087
:1048A00000F1080202E0026904E02246546825682B
:1048B0009D42FAD953684B6099608A6051600861E3
:1048C0000168491C016030BD42684A6093688B6092
:1048D00093685960916008610168491C01607047E4
:1048E000502080F31188BFF34F8FBFF36F8F0A49B9
:1048F0004868401C486001280CD10848006810F046
:10490000FF0F07D0502080F31188BFF34F8FBFF304
:104910006F8FFEE7704700007800002004ED00E094
:104920000849486828B1401E486001D180F31188C9
:104930007047502080F31188BFF34F8FBFF36F8F04
:10494000FEE700007800002070B500282AD0164D40
:10495000A0F1080460686969084207D1502080F31B
:104960001188BFF34F8FBFF36F8FFEE722683AB114
:10497000502080F31188BFF34F8FBFF36F8FFEE796
:104980008843606000F080F8606869680844686087
:104990002046FFF7FDFD2869401C2861BDE87040F6
:1049A00000F004BA70BD0000580000204FF0E02075
:1049B00000210161816105494FF47A720968B1FBF8
:1049C000F2F1491E41610721016170471800002082
:1049D00010B5020014D00F48006B38B1502080F39E
:1049E0001188BFF34F8FBFF36F8FFEE700F04CF8D5
:1049F00000211046FFF770FC00F0D8F9002807D11D
:104A000005494FF080500860BFF34F8FBFF36F8FA1
:104A100010BD00001C00002004ED00E010B586B0C1
:104A20000024039405AA04A903A80494FFF71CFF1B
:104A3000DDE903010094CDE9011000230EA1104827
:104A4000059A00F014F90F490028C86211D05020CF
:104A500080F31188BFF34F8FBFF36F8F4FF0FF309C
:104A6000886201204861CC6006B0BDE8104000F0CB
:104A700041B806B010BD000049444C45000000009C
:104A8000994400081C0000200248016B491C016386
:104A9000704700001C0000201448016B11B1012177
:104AA000C16170470021C1610169B1FA81F1C1F1B1
:104AB0001F0101EB81020E4951F822306BB101EB6D
:104AC000820101F108034A6852684A609A4201D1A2
:104AD00052684A60D16801607047502080F31188A5
:104AE000BFF34F8FBFF36F8FFEE700001C00002065
:104AF000200800201CB537480168374A914207D189
:104B0000502080F31188BFF34F8FBFF36F8FFEE704
:104B100000683149491E884207D1502080F311882E
:104B2000BFF34F8FBFF36F8FFEE72C4908780190DA
:104B3000FF20087008788DF800009DF800009DF8AF
:104B4000002000F0F000904207D0502080F3118840
:104B5000BFF34F8FBFF36F8FFEE79DF80000204C2F
:104B600000F0500020700720A06005E09DF80020B4
:104B700052008DF80020401E9DF800201206F5D44A
:104B8000A060032807D0502080F31188BFF34F8F17
:104B9000BFF36F8FFEE74FF44070A060019808707C
:104BA0000C482030016841F470010160016841F057
:104BB00070410160FFF7FAFE00206060FBF758FBD0
:104BC0000848016841F040410160FBF73DFB0020CF
:104BD0001CBD000000ED00E071C20F4100E400E0E8
:104BE0007800002034EF00E010B5502080F31188E9
:104BF000BFF34F8FBFF36F8F00F072F818B1044905
:104C00004FF080500860002080F3118810BD000034
:104C100004ED00E02DE9FF5F8346DDE90E8799464C
:104C200016468A469000FFF7FDFC05001CD0542074
:104C3000FFF7F8FC040014D00020256384F851002D
:104C4000CDE90240CDE900874B46324651465846F1
:104C5000FFF752FC2046FFF777FB012004B0BDE8C8
:104C6000F09F2846FFF770FE4FF0FF30F6E7F0B5F3
:104C700085B0DDE90B640A9DA6B1DCB1542700972D
:104C80002663022684F85160002604AFCDE902466F
:104C9000CDE90057FFF730FC2046FFF755FB04989D
:104CA00005B0F0BD502080F31188BFF34F8FBFF3E4
:104CB0006F8FFEE7502080F31188BFF34F8FBFF353
:104CC0006F8FFEE70548416919B1006B18B10020EC
:104CD0007047012070470220704700001C00002030
:104CE0002DE9F0412F4C0026206B28B1A069401C13
:104CF000A0613046BDE8F081E5686D1CE56013D128
:104D0000606B006838B1502080F31188BFF34F8F7B
:104D1000BFF36F8FFEE7606BA16B6163A063206AD6
:104D2000401C2062FFF75AFCA06ADFF87C808542B5
:104D300009D3606B0068A0B1606BC068C768786811
:104D4000854211D2A0622068C06A00EB800158F849
:104D50002100012800D90126E0690028C9D00126D8
:104D6000C7E74FF0FF30EDE7381DFFF769FDB86A80
:104D700018B107F11800FFF763FDF96A01202269F5
:104D800088401043206101EB810108EB8100391D4F
:104D9000FFF79AFDF86A2168C96A8842C9D30126DB
:104DA000C7E700001C000020200800202DE9F04784
:104DB0002C4D00242746286B38B1FFF791FD286B56
:104DC000401E2863286B40B146E0502080F31188D4
:104DD000BFF34F8FBFF36F8FFEE7A968224E01200C
:104DE000D1B3A6F1B40980463068E8B1F068C46870
:104DF00004F11800FFF724FD201DFFF721FDE06AF4
:104E00002A6908FA00F11143296100EB800109EBDE
:104E10008100211DFFF758FDE06A2968C96A8842B0
:104E2000E2D3C5F81C80DFE70CB1FFF7D7FBAC6914
:104E300044B14646FFF754FF00B1EE61641EF9D15C
:104E40000020A861E86938B10849012738070860DF
:104E5000BFF34F8FBFF36F8FFFF762FD3846BDE89A
:104E6000F08700001C000020D408002004ED00E0C2
:104E700081F00041704780F00040704721F0004110
:104E8000704720F00040704721F00042A2F16052CC
:104E9000B2F5801F01F0004328BFD2F17F6C0BD91F
:104EA0005FEA001C43EAC20242EB507018BF704731
:104EB00028BF20F001007047B2F5801FBCBF184624
:104EC00070474FEA410C1CF5001F02D2084600F063
:104ED000D8BC70B500F050FB00000089FFF7F6BFAA
:104EE0004FF00040A0F580007047000010B591EA37
:104EF000030F48BF83F0004300F1DC83841A71EB99
:104F0000030C05D2121943EB0C03001B61EB0C01DF
:104F1000DFF824E14FEA1154A4EB135C1EEA430FBF
:104F200018BF9EEA445F73D023EA0E03DCF1200E23
:104F300021EA045143F4801332D322FA0CFE10EB21
:104F40000E0023FA0CFE41EB0E01CCF1200E03FA09
:104F50000EFE10EB0E0051F10001B1F5801FCCF1F7
:104F6000200E32D201EB045112FA0EF2BDE81040CD
:104F700058BF7047401C38BF5FEA420218BF7047F5
:104F8000002814BF20F0010041F100014FEA410365
:104F900013F5001F38BF7047A1F1C04100F03ABBC4
:104FA000012A43EB0302ACF1200CDCF11F0E32BFEF
:104FB0004FF0000E23FA0CF310EB030041EB045109
:104FC000B4EB115FD0D0A1EB045101F58011490879
:104FD0005FEA300001EB04510ED350F1000038BFFE
:104FE00012FA0EFE08D1BDE81040C9E7401C38BFD8
:104FF0005FEA4202CAD1C3E7BDE810404FEA41036D
:1050000013F5001F38BF7047A1F1C04100F002BB8B
:105010009EEA445F08D011EA5E0FBDE8104004BF6D
:1050200001F0004100207047BDE8104070B500F06D
:10503000A3FA00BF64FBBE3E0000E0FF491058BF6A
:10504000C1F140415B1058BFC3F140438B42EFF3C5
:10505000008070472DE9C04130B4DFF8A0C23CEABF
:10506000111418BF3CEA131400F0EC8081EA030528
:105070001CEA111444EAD57418BF1CEA131500F099
:10508000C780A4EB05044FF0004545EAC12145EA7D
:10509000C32341EA505143EA525304F17F749942C9
:1050A00004F500344FEAC0204FEAC22208BF904204
:1050B00000F09C804FEA13650FF24016765D4FEAD0
:1050C000134506FB05F7C7F1807706FB07F74FEAA4
:1050D000D737A7FB03687642C8F58038A7FB06CE12
:1050E00038BFA8F1010807FB08E64FF0000EA6FB49
:1050F000028CE6FB03CEDCF1000CCEF1004E38BF93
:10510000AEF1010EA6FB0C584FF000074FF0000562
:10511000E6FB0E87A1FB08C6A0FB07CE16EB0E062A
:1051200045F10005E1FB076515F1E04E7EBFA4F5F2
:1051300080345FEA46066D4116F1800745F10005AF
:105140004FEA17274FEA066647EA0567A6F1DE46EB
:10515000B6F1805F4FEA15251FD9384624F0010CBF
:1051600005EBC471BCF1FE6F01EB0C1102D8F0BC71
:10517000BDE8008124425CBF01F5801E9EEAC47F29
:1051800002D4F0BCBDE80081244238D4F0BCA1F1C7
:10519000C041BDE8004100F03DBA4FEAD22242EAE8
:1051A00043524FEAD323A7FB02864FEAD02040EABE
:1051B000415007FB03661EEA0E0F4FEAD12105FBA3
:1051C000026658BFA6EB0056B6EB00564FEA520EE9
:1051D0004EEAC37E18EB0E0E56EB530EBDD518EB00
:1051E00002085E417F1C55F10005B6E74FF48015BB
:1051F0004FF000074FF000064FF00008ADE7F0BC9D
:105200004FF0000001F1C04101F00041BDE8008114
:1052100011EA0C1F0CEA131500D00CE013EA0C1F66
:1052200000F025804FF00000F0BC81EA030101F09E
:105230000041BDE80081F0BCBDE8004181EA030106
:1052400000F0E8B9F0BCBDE8004170B500F094F999
:10525000097EFC3E00F007B881EA03014FF0000030
:1052600001F00041704781EA030100F0D3B9F0BCBE
:10527000BDE800414FF0000021497047FFFDFBF9F8
:10528000F7F5F4F2F0EEEDEBE9E8E6E4E3E1E0DE79
:10529000DDDBDAD8D7D5D4D3D1D0CFCDCCCBCAC8EB
:1052A000C7C6C5C4C2C1C0BFBEBDBCBBBAB9B8B712
:1052B000B6B5B4B3B2B1B0AFAEADACABAAA9A8A805
:1052C000A7A6A5A4A3A3A2A1A09F9F9E9D9C9C9BD3
:1052D0009A9999989797969595949393929191907E
:1052E0008F8F8E8E8D8C8C8B8B8A8989888887870F
:1052F0008685858484838382828181800000FF0784
:105300000000F87F51EA030C17D41CF5801F58BF2A
:10531000BCF5801F00F10680994218BF704708BF96
:105320009042704707D711F5801F58BF13F5801FB3
:1053300019D499427047894270471CF5801F08D5DF
:10534000BCF5801FF7D58B4218BF704708BF82425B
:1053500070474FF4001C1CEB410F38BF1CEB430F90
:1053600001D28B42704770B500F006F992244900D3
:105370004FF000514FF08053FFF760BE10F0004235
:1053800048BF4042B0FA80F310FA03F10AD0C3F1EB
:105390001D0303F580634FEA415002EB035202EB19
:1053A000D12170474FF000007047000051EA030C14
:1053B00017D41CF5801F58BFBCF5801F00F1068074
:1053C000994218BF704708BF9042704707D711F540
:1053D000801F58BF13F5801F19D499427047894226
:1053E00070471CF5801F08D5BCF5801FF7D58B4290
:1053F00018BF704708BF824270474FF4001C1CEB77
:10540000410F38BF1CEB430F01D28B42704770B580
:1054100000F0B2F8922449004FF000514FF0805351
:10542000FFF70CBEDFF848C170B51CEA111E1EBFA5
:105430001CEA13159EEA0C0F95EA0C0F00F06F8022
:1054400081EA030423EA4C134EEAD47E21EA4C118C
:1054500041F4801143F48013AE44A1FB024CA0FB45
:105460000365AEF17F7E361955EB0C05A1FB034CAD
:105470004CF10003A0FB021C16EB0C06654153F136
:105480000003094218BF46F0010613F4007F0BD158
:105490004FEA03314FEA0530340341EA155140EA3F
:1054A00016506FF003020AE04FEAC3214FEAC5200D
:1054B000F40241EA555140EA56506FF0020202EB05
:1054C0002E4201EB025585EACE710AD05FEA440C08
:1054D00018BF24F0004450F1000041F1000120EA1F
:1054E000D47040F2FE7C624500D270BDA84214BF69
:1054F0004FF080444FF04044002E08BF0024BEF11E
:10550000806FA8BFA1F1C041BDE8704080F28280E9
:105510004FF0000001F1C04101F0004170479EEAE8
:105520000C0F0CEA131518BF95EA0C0F06D04FF0BC
:10553000000081EA030E0EF0004170BD00F01CF87F
:105540008900013E00F007B800F009B84FEA430CAB
:105550005FEA5C5C08D081EA030100F05BB84FEAC7
:10556000410C5FEA5C5CF6D14FF0000001497047E6
:105570000000FF070000F87F0EF1020E2EF0030E70
:105580005EF8046B364205D4012A43EB030515F59A
:10559000001F12D8012841EB010C1CF5001F0CD88C
:1055A0000ED14FEAD17C15F5001F0CEB4C0C0CF121
:1055B000020C08BF4CEBD37C04E04FF0080C01E078
:1055C0004FEAD37C0CEB4C0526FA05F606F00706ED
:1055D000B6F1040C06D20EEB860CBDE870404CF020
:1055E000010C6047DFE80CF0090B02024FF00041AC
:1055F0004FF00000A1F5002170BD194610460128AA
:1056000051EB010418BFD4F5001484BF002001F051
:10561000004170BD0808A0F500114FEA3101704744
:1056200053EA010C17D41CF5801F58BFBCF5801F2E
:1056300000F106808B4218BF704708BF8242704756
:1056400007D713F5801F58BF11F5801F19D48B425F
:1056500070479B4270471CF5801F08D5BCF5801F22
:10566000F7D5994218BF704708BF904270474FF472
:10567000001C1CEB430F38BF1CEB410F01D29942B9
:1056800070470FB40CBC03BCFFF7C1BE91EA030F17
:1056900010B581F000413FF531AC83F0004300F0DC
:1056A00009B8000010B591EA030F48BF83F000432A
:1056B0003FF524AC841A71EB030C07D212198CF05D
:1056C000004C43EB0C03001B61EB0C01DFF8A4E181
:1056D0004FEA1154A4EB135C1EEA430F18BF9EEA75
:1056E000445F00F0B08023EA6E03524221EA045185
:1056F000C3EB6E0338BF5B1EDCF1200E25D322FA0C
:105700000CFE10EB0E0043FA0CFE41EB0E01CCF147
:10571000200E03FA0EFE10EB0E0051F10001CCF149
:10572000200E29D412FA0EF201EB0451BDE810400C
:1057300058BF7047401C1CBFB2F1004F7047002893
:105740000CBF491C20F00100704712EB020E43EB26
:10575000030218BF4FF0010E4EEA4202ACF1200CDA
:10576000DCF11E0E54D943FA0CFE10EB0E0051F181
:10577000FF31CCF11E0ED5D50EF1010E12FA0EFE40
:10578000404141EB010101EB445C5FEA5C5C10D9F4
:1057900010EBDE7001EB045138BFBEF1004FBDE8E5
:1057A000104018BF704700280CBF491C20F00100B2
:1057B000704730D24FEAD42C11F5001124F4006464
:1057C0001BD0B1FA81F20B3AA41AA41ED2F1200325
:1057D000914030FA03F31943904001EBCC71002C57
:1057E00001EB0451BDE81040A8BF704701F1C04172
:1057F0004FF0000001F000417047B0FA80F310FA5A
:1058000003F100D110BDE41A173C4805C90AE4E7CA
:1058100001EB045110BD491001EB0451BDE81040EB
:105820004FEA300002E04FF0000170474A0008BF25
:105830000042F8D0B2F5001F28BF704701F00041C8
:105840004FF0000070479EEA445F07D011EA5E0FF8
:10585000BDE8104004BF002100207047BDE81040A3
:1058600070B5FFF789FE00BF40DFF63E83F00041D0
:10587000104670470000E0FF4FF04070E1EE100A64
:105880007047FF2141EAD050C00570479859000881
:10589000ED2D000800000000000000008000000066
:1058A0000000000000000000885900082D47000893
:1058B000FDFF00000000000080000000000000006C
:1058C0000000000000061016000610160000000080
:1058D00000000000010203040607080900000000A0
:1058E00001020304000000004FBB610567ACDD3F0F
:1058F000182D4454FB21E93F9BF681D20B73EF3FF7
:10590000182D4454FB21F93FE2652F227F2B7A3C6E
:10591000075C143326A6813CBDCBF07A8807703C27
:10592000075C143326A6913CC4EB98999999C9BF9A
:10593000711623FEC671BCBF6D9A74AFF2B0B3BFCF
:105940009AFDDE522DDEADBF2F6C6A2C44B4A2BF8F
:105950000D5555555555D53FFF8300922449C23FFB
:105960006E204CC5CD45B73F513DD0A0660DB13F2F
:10597000EB0D76244B7BA93F11DA22E33AAD903F41
:1059800000000000000000005255444445525F4DA5
:105990004F544F520000000064656661756C74548A
:1059A00061736B00C459000800000020080100006A
:1059B000C4010008CC5A000808010020C04D0000B6
:1059C000E0010008000000000000000000000000EE
:1059D0000100000010000000000000000024F4009E
:1059E00000000000000000000000000000000000B7
:1059F00000000000000000000000000000000000A7
:105A00000000000000000000000000000000000096
:105A10000000000000000000000000000000000086
:105A20000000000000000000000000000000000076
:105A30000000000000000000000000000000000066
:105A4000AAAAAAAA000000000000000000000000AE
:105A50000000000000000000000000000000000046
:105A60000000000000000000000000000000000036
:105A70000000000000000000000000000000000026
:105A80000000000000000000000000000000000016
:105A90000000000000000000000000000000000006
:105AA000000000000000F0410000003F0000204125
:105AB0000000A04100000000000000000000000005
:0C5AC000000000000000000000000000DA
:040000050800018965
:00000001FF
